{
  "_format": "hh-sol-artifact-1",
  "contractName": "VestingWallet",
  "sourceName": "contracts/VestingWallet.sol",
  "abi": [
    {
      "inputs": [
        {
          "internalType": "address",
          "name": "tokenAddress",
          "type": "address"
        }
      ],
      "stateMutability": "nonpayable",
      "type": "constructor"
    },
    {
      "inputs": [
        {
          "internalType": "address",
          "name": "owner",
          "type": "address"
        }
      ],
      "name": "OwnableInvalidOwner",
      "type": "error"
    },
    {
      "inputs": [
        {
          "internalType": "address",
          "name": "account",
          "type": "address"
        }
      ],
      "name": "OwnableUnauthorizedAccount",
      "type": "error"
    },
    {
      "anonymous": false,
      "inputs": [
        {
          "indexed": true,
          "internalType": "address",
          "name": "previousOwner",
          "type": "address"
        },
        {
          "indexed": true,
          "internalType": "address",
          "name": "newOwner",
          "type": "address"
        }
      ],
      "name": "OwnershipTransferred",
      "type": "event"
    },
    {
      "anonymous": false,
      "inputs": [
        {
          "indexed": false,
          "internalType": "uint256",
          "name": "amount",
          "type": "uint256"
        }
      ],
      "name": "TokensReleased",
      "type": "event"
    },
    {
      "anonymous": false,
      "inputs": [
        {
          "indexed": false,
          "internalType": "address",
          "name": "beneficiary",
          "type": "address"
        },
        {
          "indexed": false,
          "internalType": "uint256",
          "name": "start",
          "type": "uint256"
        },
        {
          "indexed": false,
          "internalType": "uint256",
          "name": "duration",
          "type": "uint256"
        },
        {
          "indexed": false,
          "internalType": "uint256",
          "name": "totalAmount",
          "type": "uint256"
        }
      ],
      "name": "VestingCreated",
      "type": "event"
    },
    {
      "anonymous": false,
      "inputs": [],
      "name": "VestingRevoked",
      "type": "event"
    },
    {
      "inputs": [],
      "name": "contractRevocable",
      "outputs": [
        {
          "internalType": "bool",
          "name": "",
          "type": "bool"
        }
      ],
      "stateMutability": "view",
      "type": "function"
    },
    {
      "inputs": [
        {
          "internalType": "address",
          "name": "beneficiaryAddress",
          "type": "address"
        },
        {
          "internalType": "uint256",
          "name": "startTimestamp",
          "type": "uint256"
        },
        {
          "internalType": "uint256",
          "name": "vestingDuration",
          "type": "uint256"
        },
        {
          "internalType": "uint256",
          "name": "amount",
          "type": "uint256"
        },
        {
          "internalType": "bool",
          "name": "isRevocable",
          "type": "bool"
        }
      ],
      "name": "createVesting",
      "outputs": [],
      "stateMutability": "nonpayable",
      "type": "function"
    },
    {
      "inputs": [],
      "name": "getBeneficiary",
      "outputs": [
        {
          "internalType": "address",
          "name": "",
          "type": "address"
        }
      ],
      "stateMutability": "view",
      "type": "function"
    },
    {
      "inputs": [],
      "name": "getDuration",
      "outputs": [
        {
          "internalType": "uint256",
          "name": "",
          "type": "uint256"
        }
      ],
      "stateMutability": "view",
      "type": "function"
    },
    {
      "inputs": [],
      "name": "getReleased",
      "outputs": [
        {
          "internalType": "uint256",
          "name": "",
          "type": "uint256"
        }
      ],
      "stateMutability": "view",
      "type": "function"
    },
    {
      "inputs": [],
      "name": "getStart",
      "outputs": [
        {
          "internalType": "uint256",
          "name": "",
          "type": "uint256"
        }
      ],
      "stateMutability": "view",
      "type": "function"
    },
    {
      "inputs": [],
      "name": "getTotalAmount",
      "outputs": [
        {
          "internalType": "uint256",
          "name": "",
          "type": "uint256"
        }
      ],
      "stateMutability": "view",
      "type": "function"
    },
    {
      "inputs": [],
      "name": "owner",
      "outputs": [
        {
          "internalType": "address",
          "name": "",
          "type": "address"
        }
      ],
      "stateMutability": "view",
      "type": "function"
    },
    {
      "inputs": [],
      "name": "releasableAmount",
      "outputs": [
        {
          "internalType": "uint256",
          "name": "",
          "type": "uint256"
        }
      ],
      "stateMutability": "view",
      "type": "function"
    },
    {
      "inputs": [],
      "name": "release",
      "outputs": [],
      "stateMutability": "nonpayable",
      "type": "function"
    },
    {
      "inputs": [],
      "name": "renounceOwnership",
      "outputs": [],
      "stateMutability": "nonpayable",
      "type": "function"
    },
    {
      "inputs": [],
      "name": "revoke",
      "outputs": [],
      "stateMutability": "nonpayable",
      "type": "function"
    },
    {
      "inputs": [
        {
          "internalType": "address",
          "name": "newOwner",
          "type": "address"
        }
      ],
      "name": "transferOwnership",
      "outputs": [],
      "stateMutability": "nonpayable",
      "type": "function"
    },
    {
      "inputs": [],
      "name": "vestedAmount",
      "outputs": [
        {
          "internalType": "uint256",
          "name": "",
          "type": "uint256"
        }
      ],
      "stateMutability": "view",
      "type": "function"
    },
    {
      "inputs": [],
      "name": "vestingActive",
      "outputs": [
        {
          "internalType": "bool",
          "name": "",
          "type": "bool"
        }
      ],
      "stateMutability": "view",
      "type": "function"
    }
  ],
  "bytecode": "0x60a060405234801561001057600080fd5b50604051611ab9380380611ab9833981810160405281019061003291906102a0565b33600073ffffffffffffffffffffffffffffffffffffffff168173ffffffffffffffffffffffffffffffffffffffff16036100a55760006040517f1e4fbdf700000000000000000000000000000000000000000000000000000000815260040161009c91906102dc565b60405180910390fd5b6100b48161017960201b60201c565b50600073ffffffffffffffffffffffffffffffffffffffff168173ffffffffffffffffffffffffffffffffffffffff1603610124576040517f08c379a000000000000000000000000000000000000000000000000000000000815260040161011b90610354565b60405180910390fd5b8073ffffffffffffffffffffffffffffffffffffffff1660808173ffffffffffffffffffffffffffffffffffffffff16815250506000600660016101000a81548160ff02191690831515021790555050610374565b60008060009054906101000a900473ffffffffffffffffffffffffffffffffffffffff169050816000806101000a81548173ffffffffffffffffffffffffffffffffffffffff021916908373ffffffffffffffffffffffffffffffffffffffff1602179055508173ffffffffffffffffffffffffffffffffffffffff168173ffffffffffffffffffffffffffffffffffffffff167f8be0079c531659141344cd1fd0a4f28419497f9722a3daafe3b4186f6b6457e060405160405180910390a35050565b600080fd5b600073ffffffffffffffffffffffffffffffffffffffff82169050919050565b600061026d82610242565b9050919050565b61027d81610262565b811461028857600080fd5b50565b60008151905061029a81610274565b92915050565b6000602082840312156102b6576102b561023d565b5b60006102c48482850161028b565b91505092915050565b6102d681610262565b82525050565b60006020820190506102f160008301846102cd565b92915050565b600082825260208201905092915050565b7f546f6b656e20616464726573732063616e6e6f74206265207a65726f00000000600082015250565b600061033e601c836102f7565b915061034982610308565b602082019050919050565b6000602082019050818103600083015261036d81610331565b9050919050565b6080516117156103a4600039600081816103cc0152818161080501528181610a430152610ae901526117156000f3fe608060405234801561001057600080fd5b50600436106100f55760003560e01c80637c6331ea11610097578063b6549f7511610066578063b6549f751461021a578063c5292c6714610224578063f2fde38b14610242578063f47a6e841461025e576100f5565b80637c6331ea146101b657806386d1a69f146101d45780638da5cb5b146101de578063ad2e8c9b146101fc576100f5565b80635b940081116100d35780635b9400811461015257806365ac434114610170578063715018a61461018e5780637c52173c14610198576100f5565b806326855d69146100fa57806344b1231f14610116578063565a2e2c14610134575b600080fd5b610114600480360381019061010f9190610ed3565b61027c565b005b61011e6105a4565b60405161012b9190610f5d565b60405180910390f35b61013c61062a565b6040516101499190610f87565b60405180910390f35b61015a610654565b6040516101679190610f5d565b60405180910390f35b610178610670565b6040516101859190610f5d565b60405180910390f35b61019661067a565b005b6101a061068e565b6040516101ad9190610fb1565b60405180910390f35b6101be6106a5565b6040516101cb9190610fb1565b60405180910390f35b6101dc6106bc565b005b6101e6610963565b6040516101f39190610f87565b60405180910390f35b61020461098c565b6040516102119190610f5d565b60405180910390f35b610222610996565b005b61022c610c15565b6040516102399190610f5d565b60405180910390f35b61025c60048036038101906102579190610fcc565b610c1f565b005b610266610ca5565b6040516102739190610f5d565b60405180910390f35b610284610caf565b600660019054906101000a900460ff16156102d4576040517f08c379a00000000000000000000000000000000000000000000000000000000081526004016102cb90611056565b60405180910390fd5b600073ffffffffffffffffffffffffffffffffffffffff168573ffffffffffffffffffffffffffffffffffffffff1603610343576040517f08c379a000000000000000000000000000000000000000000000000000000000815260040161033a906110e8565b60405180910390fd5b60008311610386576040517f08c379a000000000000000000000000000000000000000000000000000000000815260040161037d9061117a565b60405180910390fd5b600082116103c9576040517f08c379a00000000000000000000000000000000000000000000000000000000081526004016103c0906111e6565b60405180910390fd5b817f000000000000000000000000000000000000000000000000000000000000000073ffffffffffffffffffffffffffffffffffffffff166370a08231306040518263ffffffff1660e01b81526004016104239190610f87565b602060405180830381865afa158015610440573d6000803e3d6000fd5b505050506040513d601f19601f82011682018060405250810190610464919061121b565b10156104a5576040517f08c379a000000000000000000000000000000000000000000000000000000000815260040161049c90611294565b60405180910390fd5b84600160006101000a81548173ffffffffffffffffffffffffffffffffffffffff021916908373ffffffffffffffffffffffffffffffffffffffff16021790555083600281905550826003819055508160048190555080600660006101000a81548160ff02191690831515021790555060006005819055506001600660016101000a81548160ff0219169083151502179055507f0d6c6184269aab4c45eaecc5cc21da2c4bc93cf48439a2aea39245d8e66e3d1b600160009054906101000a900473ffffffffffffffffffffffffffffffffffffffff1660025460035460045460405161059594939291906112b4565b60405180910390a15050505050565b6000600660019054906101000a900460ff166105c35760009050610627565b600060045490506002544210156105de576000915050610627565b6003546002546105ee9190611328565b42106105fd5780915050610627565b6003546002544261060e919061135c565b826106199190611390565b6106239190611401565b9150505b90565b6000600160009054906101000a900473ffffffffffffffffffffffffffffffffffffffff16905090565b60006005546106616105a4565b61066b919061135c565b905090565b6000600454905090565b610682610caf565b61068c6000610d36565b565b6000600660009054906101000a900460ff16905090565b6000600660019054906101000a900460ff16905090565b600660019054906101000a900460ff1661070b576040517f08c379a00000000000000000000000000000000000000000000000000000000081526004016107029061147e565b60405180910390fd5b6000610715610654565b90506000811161075a576040517f08c379a0000000000000000000000000000000000000000000000000000000008152600401610751906114ea565b60405180910390fd5b600160009054906101000a900473ffffffffffffffffffffffffffffffffffffffff1673ffffffffffffffffffffffffffffffffffffffff163373ffffffffffffffffffffffffffffffffffffffff16146107ea576040517f08c379a00000000000000000000000000000000000000000000000000000000081526004016107e19061157c565b60405180910390fd5b80600560008282546107fc9190611328565b925050819055507f000000000000000000000000000000000000000000000000000000000000000073ffffffffffffffffffffffffffffffffffffffff1663a9059cbb600160009054906101000a900473ffffffffffffffffffffffffffffffffffffffff16836040518363ffffffff1660e01b815260040161088092919061159c565b6020604051808303816000875af115801561089f573d6000803e3d6000fd5b505050506040513d601f19601f820116820180604052508101906108c391906115da565b610902576040517f08c379a00000000000000000000000000000000000000000000000000000000081526004016108f990611653565b60405180910390fd5b7fa1598fb976f7dd9df63fd18699c54a5744a6a95364166bbd0d77a2f6c8438b1f816040516109319190610f5d565b60405180910390a160045460055410610960576000600660016101000a81548160ff0219169083151502179055505b50565b60008060009054906101000a900473ffffffffffffffffffffffffffffffffffffffff16905090565b6000600354905090565b61099e610caf565b600660019054906101000a900460ff166109ed576040517f08c379a00000000000000000000000000000000000000000000000000000000081526004016109e49061147e565b60405180910390fd5b600660009054906101000a900460ff16610a3c576040517f08c379a0000000000000000000000000000000000000000000000000000000008152600401610a33906116bf565b60405180910390fd5b60006005547f000000000000000000000000000000000000000000000000000000000000000073ffffffffffffffffffffffffffffffffffffffff166370a08231306040518263ffffffff1660e01b8152600401610a9a9190610f87565b602060405180830381865afa158015610ab7573d6000803e3d6000fd5b505050506040513d601f19601f82011682018060405250810190610adb919061121b565b610ae5919061135c565b90507f000000000000000000000000000000000000000000000000000000000000000073ffffffffffffffffffffffffffffffffffffffff1663a9059cbb610b2b610963565b836040518363ffffffff1660e01b8152600401610b4992919061159c565b6020604051808303816000875af1158015610b68573d6000803e3d6000fd5b505050506040513d601f19601f82011682018060405250810190610b8c91906115da565b610bcb576040517f08c379a0000000000000000000000000000000000000000000000000000000008152600401610bc290611653565b60405180910390fd5b6000600660016101000a81548160ff0219169083151502179055507fab9bb9a2dbce8eb1c5199596521d57563c7289fb1ac680030c44e9a0d16e6ed060405160405180910390a150565b6000600254905090565b610c27610caf565b600073ffffffffffffffffffffffffffffffffffffffff168173ffffffffffffffffffffffffffffffffffffffff1603610c995760006040517f1e4fbdf7000000000000000000000000000000000000000000000000000000008152600401610c909190610f87565b60405180910390fd5b610ca281610d36565b50565b6000600554905090565b610cb7610dfa565b73ffffffffffffffffffffffffffffffffffffffff16610cd5610963565b73ffffffffffffffffffffffffffffffffffffffff1614610d3457610cf8610dfa565b6040517f118cdaa7000000000000000000000000000000000000000000000000000000008152600401610d2b9190610f87565b60405180910390fd5b565b60008060009054906101000a900473ffffffffffffffffffffffffffffffffffffffff169050816000806101000a81548173ffffffffffffffffffffffffffffffffffffffff021916908373ffffffffffffffffffffffffffffffffffffffff1602179055508173ffffffffffffffffffffffffffffffffffffffff168173ffffffffffffffffffffffffffffffffffffffff167f8be0079c531659141344cd1fd0a4f28419497f9722a3daafe3b4186f6b6457e060405160405180910390a35050565b600033905090565b600080fd5b600073ffffffffffffffffffffffffffffffffffffffff82169050919050565b6000610e3282610e07565b9050919050565b610e4281610e27565b8114610e4d57600080fd5b50565b600081359050610e5f81610e39565b92915050565b6000819050919050565b610e7881610e65565b8114610e8357600080fd5b50565b600081359050610e9581610e6f565b92915050565b60008115159050919050565b610eb081610e9b565b8114610ebb57600080fd5b50565b600081359050610ecd81610ea7565b92915050565b600080600080600060a08688031215610eef57610eee610e02565b5b6000610efd88828901610e50565b9550506020610f0e88828901610e86565b9450506040610f1f88828901610e86565b9350506060610f3088828901610e86565b9250506080610f4188828901610ebe565b9150509295509295909350565b610f5781610e65565b82525050565b6000602082019050610f726000830184610f4e565b92915050565b610f8181610e27565b82525050565b6000602082019050610f9c6000830184610f78565b92915050565b610fab81610e9b565b82525050565b6000602082019050610fc66000830184610fa2565b92915050565b600060208284031215610fe257610fe1610e02565b5b6000610ff084828501610e50565b91505092915050565b600082825260208201905092915050565b7f56657374696e6720697320616c72656164792061637469766500000000000000600082015250565b6000611040601983610ff9565b915061104b8261100a565b602082019050919050565b6000602082019050818103600083015261106f81611033565b9050919050565b7f42656e656669636961727920616464726573732063616e6e6f74206265207a6560008201527f726f000000000000000000000000000000000000000000000000000000000000602082015250565b60006110d2602283610ff9565b91506110dd82611076565b604082019050919050565b60006020820190508181036000830152611101816110c5565b9050919050565b7f4475726174696f6e206d7573742062652067726561746572207468616e207a6560008201527f726f000000000000000000000000000000000000000000000000000000000000602082015250565b6000611164602283610ff9565b915061116f82611108565b604082019050919050565b6000602082019050818103600083015261119381611157565b9050919050565b7f416d6f756e74206d7573742062652067726561746572207468616e207a65726f600082015250565b60006111d0602083610ff9565b91506111db8261119a565b602082019050919050565b600060208201905081810360008301526111ff816111c3565b9050919050565b60008151905061121581610e6f565b92915050565b60006020828403121561123157611230610e02565b5b600061123f84828501611206565b91505092915050565b7f496e73756666696369656e7420746f6b656e7320696e20636f6e747261637400600082015250565b600061127e601f83610ff9565b915061128982611248565b602082019050919050565b600060208201905081810360008301526112ad81611271565b9050919050565b60006080820190506112c96000830187610f78565b6112d66020830186610f4e565b6112e36040830185610f4e565b6112f06060830184610f4e565b95945050505050565b7f4e487b7100000000000000000000000000000000000000000000000000000000600052601160045260246000fd5b600061133382610e65565b915061133e83610e65565b9250828201905080821115611356576113556112f9565b5b92915050565b600061136782610e65565b915061137283610e65565b925082820390508181111561138a576113896112f9565b5b92915050565b600061139b82610e65565b91506113a683610e65565b92508282026113b481610e65565b915082820484148315176113cb576113ca6112f9565b5b5092915050565b7f4e487b7100000000000000000000000000000000000000000000000000000000600052601260045260246000fd5b600061140c82610e65565b915061141783610e65565b925082611427576114266113d2565b5b828204905092915050565b7f4e6f206163746976652076657374696e67000000000000000000000000000000600082015250565b6000611468601183610ff9565b915061147382611432565b602082019050919050565b600060208201905081810360008301526114978161145b565b9050919050565b7f4e6f20746f6b656e73206172652064756520666f722072656c65617365000000600082015250565b60006114d4601d83610ff9565b91506114df8261149e565b602082019050919050565b60006020820190508181036000830152611503816114c7565b9050919050565b7f4f6e6c792062656e65666963696172792063616e2072656c6561736520746f6b60008201527f656e730000000000000000000000000000000000000000000000000000000000602082015250565b6000611566602383610ff9565b91506115718261150a565b604082019050919050565b6000602082019050818103600083015261159581611559565b9050919050565b60006040820190506115b16000830185610f78565b6115be6020830184610f4e565b9392505050565b6000815190506115d481610ea7565b92915050565b6000602082840312156115f0576115ef610e02565b5b60006115fe848285016115c5565b91505092915050565b7f546f6b656e207472616e73666572206661696c65640000000000000000000000600082015250565b600061163d601583610ff9565b915061164882611607565b602082019050919050565b6000602082019050818103600083015261166c81611630565b9050919050565b7f56657374696e67206973206e6f74207265766f6361626c650000000000000000600082015250565b60006116a9601883610ff9565b91506116b482611673565b602082019050919050565b600060208201905081810360008301526116d88161169c565b905091905056fea2646970667358221220c06a744079e115101fec0a86d95fd1c10bb11daf14c41e18f870d6df33b29db364736f6c634300081b0033",
  "linkReferences": {},
  "deployedLinkReferences": {}
}